:020000040800F2
:100000000080012071360008C1360008D93200088E
:10001000C1360008D5320008D332000800000000C5
:10002000000000000000000000000000092E000891
:10003000C136000800000000C92E0008352F000856
:10004000C1360008C1360008C1360008C1360008B4
:10005000C1360008C1360008C1360008C1360008A4
:10006000C1360008C1360008C1360008C136000894
:10007000C1360008C1360008C1360008C136000884
:10008000C1360008C1360008C1360008C136000874
:10009000C1360008C1360008C1360008C136000864
:1000A000C1360008C1360008C1360008C136000854
:1000B000C1360008C1360008C1360008C136000844
:1000C000C1360008C1360008C1360008C136000834
:1000D000C1360008C1360008C1360008C136000824
:1000E000C1360008C1360008C1360008C136000814
:1000F000C1360008C1360008C1360008C136000804
:10010000C1360008C1360008C1360008C1360008F3
:10011000C1360008C1360008C1360008C1360008E3
:10012000C1360008C1360008C1360008C1360008D3
:10013000C1360008C1360008C1360008C1360008C3
:10014000C1360008C1360008C1360008C1360008B3
:10015000C1360008C1360008C1360008C1360008A3
:10016000C1360008C1360008C1360008C136000893
:10017000C1360008C1360008C13600080000000082
:08018000C1360008C136000879
:100190000348044B834202D0034B03B11847704716
:1001A00040040020400400200000000005480649EB
:1001B0000B1AD90F01EBA301491002D0034B03B175
:1001C0001847704740040020400400200000000051
:1001D00010B5064C237843B9FFF7DAFF044B13B18F
:1001E0000448AFF300800123237010BD40040020B9
:1001F00000000000D836000808B5044B1BB10449C4
:100200000448AFF30080BDE80840CFE700000000DD
:1002100044040020D8360008A3F5803A704700BF98
:10022000154B002B08BF114B9D46FFF7F5FF002132
:100230008B460F461148124A121A03F03DF90C4B37
:10024000002B00D098470B4B002B00D09847002084
:10025000002104000D000B4803F040F803F06EF895
:100260002000290002F0BCFF03F03EF80000080067
:10027000000000000000000000000000400400201A
:100280002434012009330008034AD2F8883043F4AB
:100290007003C2F88830704700ED00E02F4B1B68F8
:1002A00013F0080F2D4B07BFD3F89430C3F303238B
:1002B0001B68C3F303132A4A52F82310274A936892
:1002C00003F00C030C2B45D8DFE803F0074444444B
:1002D000164444441A4444441E00224B19601F4BE8
:1002E0009A682049C2F303121D4B134493F830203F
:1002F0000B68D3400B6070471A4B1B4A1A60EEE73D
:10030000184B1A4A1A60EAE7144BDA6802F0030243
:10031000DB68C3F302130133022A04D0032A15D089
:10032000B1FBF3F302E0104AB2FBF3F30B4AD168DE
:10033000D268C1F3062103FB01F3C2F3416201322B
:100340005200B3FBF2F3074A1360C8E7074AB2FB57
:10035000F3F3EBE7034B1960C1E700BF0010024065
:10036000F4360008040000200024F40000127A0093
:1003700064370008000000204004002040040020F2
:100380002434012028B141690C4A91420AD000204E
:1003900070474FF0500383F31188BFF36F8FBFF3A3
:1003A0004F8FFEE7806A02F11403984203D0B0FA3F
:1003B00080F0400970470020704700BF5C040020B7
:1003C000074B9B6A1B6823B9054B4FF0FF32DA627B
:1003D0007047034B9A6AD2681268DA62704700BFAE
:1003E0005C04002008B5134C134E236BBBB102F024
:1003F00033FD236CDD68281D02F09AFCA36C013BE1
:10040000A364236B013B236302F048FD286B02F0D9
:10041000B7FE284602F0B4FE236B002BE7D1E36C55
:10042000012BE2D94FF080533360BFF34F8FBFF3FE
:100430006F8FDAE75C04002004ED00E070B504463D
:100440000D46274BD3F8B060D3F8B400043002F067
:100450006FFC58B9224BD3F8B410D3F8B820C86A4F
:100460000121814022EA0102C3F8B820B4F1FF3F24
:100470000FD034441A4BD3F8B4305C60A64222D972
:10048000174BD3F8BC00D3F8B410043102F037FC9A
:1004900070BD002DEDD0124B5A68D3F8B4108A60AD
:1004A000D3F8B4109068C860D3F8B4100431416038
:1004B000D3F8B41004319160D3F8B42053611A68B2
:1004C00001321A60E4E7064DA86AD5F8B410043189
:1004D00002F015FCEB6AA34284BF2B46DC62D7E72F
:1004E0005C0400202DE9F04780460C4699469600B2
:1004F000304602F0F9FD002800F0DB8005466C2054
:1005000002F0F2FD074630B36C22002102F0D4FF66
:100510003D633246A521284602F0CEFFD7F830A031
:100520006CB1651E07F133021F3415F8013F02F864
:10053000013F0BB1A542F8D1002387F85330089B47
:10054000042B0ED94FF0500383F31188BFF36F8F44
:10055000BFF34F8FFEE7284602F012FE4FF0FF3048
:10056000A9E0089BFB62FB653C1D204602F0B9FB3D
:1005700007F1180002F0B5FB3F61089BC3F10503CA
:10058000BB617F62043E56444A46414626F007005E
:1005900002F024FC3860099B03B11F6002F05CFC90
:1005A000484B9A6C01329A64D3F8B430002B4BD08C
:1005B000444BD3F8E8304BB9424BD3F8B430DA6A45
:1005C000FB6A9A429CBF3F4BC3F8B4703D4DD5F8CF
:1005D000EC300133C5F8EC307B65FB6AD5F8B81018
:1005E00001229A400A43C5F8B82003EB830305EBC8
:1005F00083031B6DBB609A68FA6054609C60FB6A61
:1006000005F14C0203EB830102EB81027A6105EBF9
:100610008102D26C013205EB8103DA6402F03EFC08
:10062000D5F8E830002B48D0D5F8B430DA6AFB6A48
:100630009A4244D2244B4FF080521A60BFF34F8F3E
:10064000BFF36F8F012036E01E4BC3F8B4709B6C74
:10065000012BBBD11B4D05F14C0002F037FB05F11E
:10066000600002F033FB05F1740002F02FFB05F18E
:10067000880002F02BFB05F19C0002F027FB05F13E
:10068000C008404602F022FB05F1D406304602F0D5
:100690001DFB05F1140002F019FB05F1340002F016
:1006A00015FB284602F012FBC5F82880C5F8BC608F
:1006B0008CE74FF0FF30BDE8F0870120FBE7012019
:1006C000F9E700BF5C04002004ED00E070B50446CB
:1006D00002F0C2FB002C42D0261D304602F028FB5F
:1006E00080B9E16A01EB81022F4B03EB8203DB6CE3
:1006F00043B92D48D0F8B83001228A4023EA0203DA
:10070000C0F8B830A36A1BB104F1180002F010FB66
:10071000254BD3F8EC200132C3F8EC20D3F8B430E9
:10072000A34220D0204A936C013B9364FFF748FE1C
:1007300002F0B4FB1C4BD3F8B430A34205D0206BBD
:1007400002F01EFD204602F01BFD174BD3F8E830E7
:1007500023B1154BD3F8B430A3420ED070BD124B69
:10076000D3F8B440B8E7104D314605F1340002F03B
:10077000BBFA2B6B01332B63DAE70B4BD3F8F0306A
:1007800043B14FF0500383F31188BFF36F8FBFF372
:100790004F8FFEE7054B4FF080521A60BFF34F8F2B
:1007A000BFF36F8FDAE700BF5C04002004ED00E0C8
:1007B000F8B5E8B105461D4BD3F8B43083422CD0D0
:1007C00002F04AFB6C69194B9F6AD3F8BC6002F0D7
:1007D00065FBBC4223D0B44223D0144B9C4210D0C2
:1007E000134B9C421FD0002C0CBF0420012015E0AD
:1007F0004FF0500383F31188BFF36F8FBFF34F8F18
:10080000FEE7AB6A0BB1022008E095F86830DBB276
:10081000012B0CBF0220032000E00020F8BD0220C5
:10082000FCE70220FAE70420F8E700BF5C040020A0
:100830009004002010B5044602F00EFB24B1E46AD7
:1008400002F02CFB204610BD014BD3F8B440F6E774
:100850005C04002010B5044602F01AFCEFF311838B
:100860004FF0500282F31188BFF36F8FBFF34F8FA9
:100870001CB1E06A83F3118810BD024AD2F8B4407B
:10088000F7E700BF5C040020F8B5042908D94FF051
:10089000500383F31188BFF36F8FBFF34F8FFEE7D1
:1008A00004460D4602F0D8FA8CB1E36D9D4235D076
:1008B00011D9364AD2F8B420A24232D0334AD2F803
:1008C000B420D66AAE428CBF002601260AE02F4B28
:1008D000D3F8B440E9E72D4AD2F8B460A64214BF79
:1008E00000260126E76ABB4208BFE562E565A36909
:1008F000002BA4BFC5F10505A56107EB8702244BBA
:1009000003EB820362699A420DD03EB1214B4FF056
:1009100080521A60BFF34F8FBFF36F8F02F0BEFAA1
:10092000F8BD0026DEE7251D284602F001FA48B989
:100930001649D1F8B830012202FA07F723EA070373
:10094000C1F8B830E26A114BD3F8B80001219140E8
:100950000143C3F8B81002EB820203EB8202126D6E
:10096000A2609168E1604D609560E26A03F14C011C
:1009700002EB820001EB8001616103EB8001C96C35
:10098000013103EB8003D964BFE700BF5C040020A2
:10099000A804002004ED00E038B570B10446264BF1
:1009A000D3F8B430834207D002F056FA2046FFF75E
:1009B000E9FC58B902F072FA38BD4FF0500383F3E6
:1009C0001188BFF36F8FBFF34F8FFEE7251D2846B9
:1009D00002F0AEF9E36A184AD2F8B8000121994052
:1009E0000143C2F8B81003EB830302EB83031B6DD2
:1009F000A3609968E1604D609D60E36A02F14C017B
:100A000003EB830001EB8001616102EB8001C96CA3
:100A1000013102EB8003D964D2F8B430E26ADB6AB8
:100A20009A42C7D3054B4FF080521A60BFF34F8FE5
:100A3000BFF36F8FBEE700BF5C04002004ED00E051
:100A4000F8B500284DD0044602F022FBEFF31186E2
:100A50004FF0500383F31188BFF36F8FBFF34F8FB5
:100A60002046FFF78FFC0546002836D0254BD3F8EB
:100A7000F030002B3ED1234BD3F8B430E26ADB6A6E
:100A80009A4223BF01251F4BC3F8F4500025271DB0
:100A9000384602F04DF9E26A1A4BD3F8B80001214A
:100AA00091400143C3F8B81002EB820203EB8202CB
:100AB000126DA2609168E1604F609760E26A03F195
:100AC0004C0102EB820001EB8001616103EB8001CC
:100AD000C96C013103EB8003D96486F31188284681
:100AE000F8BD4FF0500383F31188BFF36F8FBFF34E
:100AF0004F8FFEE704F11801034802F0F5F80025D6
:100B0000EBE700BF5C0400207004002000B583B058
:100B1000184B019300230093822217491748FFF7CF
:100B2000E1FC012807D0B0F1FF3F19D0144B1B683E
:100B300003B05DF804FB4FF0500383F31188BFF35B
:100B40006F8FBFF34F8F0F4B4FF0FF32DA620122EE
:100B5000C3F8E8200022C3F8B02002F013FAE5E75A
:100B60004FF0500383F31188BFF36F8FBFF34F8FA4
:100B7000FEE700BF5405002040370008E5030008E9
:100B8000080000205C04002008B54FF0500383F3F8
:100B90001188BFF36F8FBFF34F8F034B0022C3F851
:100BA000E82002F047F908BD5C040020034AD2F8AF
:100BB000F0300133C2F8F030704700BF5C04002011
:100BC000014BD3F8B00070475C04002008B502F078
:100BD0005FFA024BD3F8B00008BD00BF5C040020F0
:100BE000014B986C704700BF5C040020034610B1B5
:100BF00003F134007047074BD3F8B430002BF7D122
:100C00004FF0500383F31188BFF36F8FBFF34F8F03
:100C1000FEE700BF5C0400202DE9F843654BD3F8E4
:100C2000F030002B40F0BD80624BD3F8B04001346F
:100C3000C3F8B040CCB99B6A1B6843B14FF0500376
:100C400083F31188BFF36F8FBFF34F8FFEE7594BCC
:100C50009A6AD3F8BC109962C3F8BC20D3F8FC2080
:100C60000132C3F8FC20FFF7ABFB524BDB6AA34217
:100C700000F283804F4B9B6A1B683BB100204D49BB
:100C800005464FF0010901F14C0640E00020494BB8
:100C90004FF0FF32DA6271E0464BDA626EE0DA6AF8
:100CA000D1F8B88009FA02FE4EEA080EC1F8B8E0A1
:100CB00002EB820201EB8202126D9A60D2F808E028
:100CC000C3F80CE0CEF804C0C2F808C0DA6A02EB40
:100CD000820C06EB8C0CC3F814C002EB820C01EB07
:100CE0008C0CDCF84CC00CF1010C02EB820201EB25
:100CF0008202C2F84CC0D1F8B4C0DA6ADCF82C30F9
:100D00009A4228BF01208B6A1B68002BBFD08B6AD8
:100D1000DB68DB685A689442BED3D3F814E0DA6823
:100D20009F68BA609F68576003F1040CDEF80420E6
:100D3000624504BFDA68CEF804205D61DEF8002069
:100D4000013ACEF80020D3F828E0BEF1000FA6D07B
:100D50001A6ADF69BA60DF69576003F11808DEF8C4
:100D60000420424504BF1A6ACEF804209D62DEF8D2
:100D70000020013ACEF8002091E700200D4BD3F877
:100D8000B420D26A02EB820203EB8203DB6C022BFB
:100D900028BF0120074BD3F8F430002B18BF0120E7
:100DA00006E0044AD2F800310133C2F800310020D5
:100DB000BDE8F8835C040020F8B5524BD3F8F0305E
:100DC00043B94FF0500383F31188BFF36F8FBFF324
:100DD0004F8FFEE702F040F84A4BD3F8F020013A7B
:100DE000C3F8F020D3F8F030002B40F08480454B5E
:100DF0009B6C002B00F08480424B5B69002B58D029
:100E0000404A0025012402F14C06136ADB68996A06
:100E1000DF69186AB860DF69476003F118004F683E
:100E2000874204BF186A48609D62086801380860FC
:100E300059699F68D868B8609F684760181D4F68F7
:100E4000874204BFDF684F605D610F68013F0F603C
:100E5000D96AD2F8B8C004FA01F747EA0C07C2F819
:100E6000B87001EB810102EB8101096D99608F6817
:100E7000DF6078608860D96A01EB810006EB800052
:100E8000586101EB810002EB8000C06C013001EB86
:100E9000810102EB8101C864D2F8B400D96AC36A47
:100EA000994228BFC2F8F4405369002BADD1FFF737
:100EB00087FA144BD3F800417CB11E46012501E0AE
:100EC000013C06D0FFF7A8FE0028F9D0C6F8F45080
:100ED000F6E70C4B0022C3F800210A4BD3F8F4408C
:100EE00054B1094B4FF080521A60BFF34F8FBFF3DC
:100EF0006F8F012400E0002401F0D0FF2046F8BDF0
:100F00000024F9E75C04002004ED00E038B558B196
:100F10000C46054689B94FF0500383F31188BFF39F
:100F20006F8FBFF34F8FFEE74FF0500383F31188AD
:100F3000BFF36F8FBFF34F8FFEE71E4BD3F8F03038
:100F400043B14FF0500383F31188BFF36F8FBFF3AA
:100F50004F8FFEE7FFF72AFE164BD3F8B0002A6842
:100F6000144482420BD9A24202D82C60002410E023
:100F7000A04202D32C6000240BE02C6004E0A242CB
:100F800001D8A04212D22C600021201AFFF756FA95
:100F90000124FFF711FF38B9074B4FF080521A6058
:100FA000BFF34F8FBFF36F8F204638BD2C600024F6
:100FB000EFE700BF5C04002004ED00E010B5B0B125
:100FC00004460F4BD3F8F03043B14FF0500383F396
:100FD0001188BFF36F8FBFF34F8FFEE7FFF7E6FD7A
:100FE00000212046FFF72AFAFFF7E6FE38B9054B45
:100FF0004FF080521A60BFF34F8FBFF36F8F10BD59
:101000005C04002004ED00E00E4BD3F8F03043B157
:101010004FF0500383F31188BFF36F8FBFF34F8FEF
:10102000FEE710B50446FFF7C1FD01F015FF054AC4
:10103000D2F800312344C2F8003101F02FFFFFF74E
:10104000BBFE10BD5C04002008B52F4BD3F8F03078
:1010500023B12D4B0122C3F8F42008BD2A4B0022F6
:10106000C3F8F420D3F8B4301B6B1A68B2F1A53F73
:1010700003D15A68B2F1A53F1ED0234BD3F8B40078
:10108000D3F8B410343102F011F91F4AD2F8B83055
:10109000B3FA83F3DBB2C3F11F0303EB830102EB6B
:1010A0008102D26C8AB94FF0500383F31188BFF3E9
:1010B0006F8FBFF34F8FFEE79A68B2F1A53FDCD187
:1010C000DB68B3F1A53FD8D1DFE70F4A03EB83011B
:1010D00002EB8101086D4068086503EB830102EBB8
:1010E00081025432904209D0074A03EB830302EB9A
:1010F00083031B6DDB68C2F8B430AEE74068024A78
:1011000002EB81021065EFE75C04002038B504466D
:1011100001F0A2FE9CB3251D284601F009FE80B90E
:10112000E16A01EB81022F4B03EB8203DB6C43B9D5
:101130002C48D0F8B83001228A4023EA0203C0F8D4
:10114000B830A36A1BB104F1180001F0F1FD294683
:10115000244801F0C9FD94F86830DBB2012B04BFCC
:10116000002384F8683001F099FE1E4BD3F8E83074
:101170004BB91C4BD3F8B430A3420BD038BD194B3C
:10118000D3F8B440C7E701F067FEFFF719F901F0A3
:1011900085FEEEE7134BD3F8E830ABB1114BD3F833
:1011A000F03043B14FF0500383F31188BFF36F8FDA
:1011B000BFF34F8FFEE70C4B4FF080521A60BFF326
:1011C0004F8FBFF36F8FD9E7064B1A689B6C9A421B
:1011D00004D1044B0022C3F8B420CFE7FFF734FF5B
:1011E000CCE700BF5C04002004ED00E060B110B566
:1011F0000C460A4BD3F8B410183101F080FD0121E0
:101200002046FFF71BF910BD4FF0500383F3118800
:10121000BFF36F8FBFF34F8FFEE700BF5C0400206A
:1012200038B5034670B110461A461B4BD3F8F03060
:101230008BB94FF0500383F31188BFF36F8FBFF367
:101240004F8FFEE74FF0500383F31188BFF36F8F8A
:10125000BFF34F8FFEE7104BD3F8B44041F000418D
:10126000A1615168D3F8B440E161D3F8B4408D680E
:101270002562D3F8B44018346C60D3F8B440183405
:101280008C60D3F8B4309A62136801331360012183
:10129000FFF7D4F838BD00BF5C040020C368DB68EA
:1012A000002B58D030B49A6AD869196A8160D8691D
:1012B000486003F118005168814204BF196A516007
:1012C000002199621168013911602E4AD2F8F0208C
:1012D000002A49D15A699868D9688160986848603D
:1012E0001C1D5168A14204BFD96851600021596199
:1012F000116801391160D96A224AD2F8B850012028
:1013000088402843C2F8B80001EB810102EB81015B
:10131000096D99608868D86044608C60D96A02F170
:101320004C0001EB810400EB8400586102EB840067
:10133000C06C013002EB8402D064124AD2F8B410BF
:10134000DA6ACB6A9A4283BF01200E4BC3F8F400DD
:10135000002030BC70474FF0500383F31188BFF377
:101360006F8FBFF34F8FFEE7064A9169D9618C6892
:101370001C626060886002F1140199625169013158
:101380005161DAE75C0400200B463749D1F8F010D0
:1013900041B94FF0500383F31188BFF36F8FBFF350
:1013A0004F8FFEE7024643F000430360C368002B03
:1013B00050D030B401694068946884609068546883
:1013C00044604868904204BF906848600020106103
:1013D0000A68013A0A605A699868D9688160986811
:1013E00048601C1D5168A14204BFD96851600021AA
:1013F0005961116801391160DA6A1B49D1F8B85096
:10140000012090402843C1F8B80002EB820201EBB2
:101410008202126D9A609068D86044609460DA6AC3
:1014200001F14C0002EB820400EB8400586101EBF7
:101430008400C06C013001EB8402D064D1F8B41098
:10144000DA6ACB6A9A4203D9074B0122C3F8F42027
:1014500030BC70474FF0500383F31188BFF36F8F98
:10146000BFF34F8FFEE700BF5C04002068B110B5EA
:10147000044601F0F1FC094BD3F8FC202260D3F8BC
:10148000B030636001F00AFD10BD4FF0500383F3EC
:101490001188BFF36F8FBFF34F8FFEE75C0400200E
:1014A000034BD3F8FC200260D3F8B03043607047A0
:1014B0005C040020C8B170B50C460546F1B101F0DE
:1014C000CBFC1D4BD3F8B0102368B3F1FF3F2DD0F8
:1014D0006A681948D0F8FC002E68864217D08A4204
:1014E00015D800232360012421E04FF0500383F33B
:1014F0001188BFF36F8FBFF34F8FFEE74FF050039C
:1015000083F31188BFF36F8FBFF34F8FFEE7881A05
:10151000834203D800232360012408E05B1A1344AC
:1015200023602846FFF7BCFF002400E0002401F000
:10153000B5FC204670BD00BF5C040020024B0122B8
:10154000C3F8F420704700BF5C04002008B1806D30
:1015500070470020704700B18165704770B50C4638
:1015600016460546D8B1256005F134026260EA6A84
:1015700022612A6BE2616A6DA260EA6D62610022FB
:10158000A261052B1BD0194AD2F8B420AA420AD076
:101590002373032B0AD0BEB90023238470BD134AE2
:1015A000D2F8B450DFE700232373F4E7FFF7FEFA25
:1015B000AB6A0BB102232373FFF7FEFBEBE7284670
:1015C000FFF7F6F82073E6E72A6B1378A52B0AD10C
:1015D0001346C2F10102D11813F8010FA528FAD061
:1015E00089082184DAE70021FAE700BF5C040020C3
:1015F0002DE9F84F0E682EB30C4617464B685B6812
:101600004B6001F10808434504BFCB684B604B6851
:10161000D3F80CA0054600264FF0010963685B680B
:101620006360984504BF5B6863606368D3F80CB07F
:101630003B464A4629465846FFF790FF0136243577
:10164000DA45EBD13046BDE8F88F2DE9F84307467F
:101650000C461646FFF7AAFA244B9B6CA3423FD8D0
:10166000224B03F19C0503F14C0800244FF00109C3
:1016700004EBC4004A46294607EB8000FFF7B8FF99
:1016800004444545A5F11405F2D1184DA96A04EBAF
:10169000C400022207EB8000FFF7AAFF0444D5F83C
:1016A000BC1004EBC400022207EB8000FFF7A0FF90
:1016B000044404EBC400042205F1340107EB80006C
:1016C000FFF796FF044404EBC4000322294607EB0E
:1016D0008000FFF78DFF04441EB10023336000E05B
:1016E0000024FFF769FB2046BDE8F8835C04002076
:1016F000014BD3F8B40070475C040020002861D08F
:1017000070B50446C36A304AD2F8B420D26A934214
:101710004ED28269002A06DB2B4AD2F8B420D26A64
:10172000C2F10502826103EB8303284A02EB8303C3
:1017300062699A4206D0244BD3F8B430DB6AE36284
:1017400001203EE0251D284601F0F2FA48B91E4965
:10175000D1F8B830E06A0122824023EA0203C1F8DE
:10176000B830194BD3F8B420D26AE262D3F8B8602B
:10177000012000FA02F13143C3F8B81002EB8202F3
:1017800003EB8202126DA2609168E1604D6095608A
:10179000E26A03F14C0102EB820501EB8501616114
:1017A00003EB8501C96C014403EB8503D96408E0B0
:1017B000054BD3F8B430C06DDB6A98422CBF0020D3
:1017C000012070BD002070475C040020A8040020A8
:1017D00000285AD070B504462E4BD3F8B43083425B
:1017E00008D04FF0500383F31188BFF36F8FBFF31E
:1017F0004F8FFEE7036E43B94FF0500383F3118818
:10180000BFF36F8FBFF34F8FFEE7013B0366C16AE3
:10181000C26D91423BD00BB1002070BD051D284622
:1018200001F086FA48B91B49D1F8B830E06A0122C4
:10183000824023EA0203C1F8B830E36DE362C3F1EA
:101840000502A261134AD2F8B860012000FA03F140
:101850003143C2F8B81003EB830302EB83031B6D23
:10186000A3609968E1604D609D60E36A02F14C01FC
:1018700003EB830501EB8501616102EB8501C96C16
:10188000014402EB8502D164C7E7002070470020C5
:10189000C3E700BF5C040020002866D038B50B46C3
:1018A0000446016E41B94FF0500383F31188BFF332
:1018B0006F8FBFF34F8FFEE7C26D934238BF134661
:1018C000C26A9A4201D0012900D038BD2749D1F817
:1018D000B410814240D0C36281690029A4BFC3F122
:1018E0000503836102EB8202214B03EB8202436911
:1018F0009342EAD1051D284601F01AFA48B91B495E
:10190000D1F8B830E06A0122824023EA0203C1F82C
:10191000B830E26A154BD3F8B80001219140014379
:10192000C3F8B81002EB820203EB8202126DA260D0
:101930009168E1604D609560E26A03F14C0102EB51
:10194000820001EB8001616103EB8001C96C013110
:1019500003EB8003D964B8E74FF0500383F3118899
:10196000BFF36F8FBFF34F8FFEE770475C0400201B
:10197000A8040020064BD3F8B4209069D3F8B41023
:10198000D3F8B420CB6AC3F105039361704700BF5D
:101990005C040020064BD3F8B4302BB1044BD3F8D1
:1019A000B420136E01331366014BD3F8B4007047B3
:1019B0005C04002038B540B14FF0500383F3118828
:1019C000BFF36F8FBFF34F8FFEE70D46144601F054
:1019D00043FA1C4BD3F8B4305B6E33B9194BD3F8D0
:1019E000B430012283F86820C4B901F057FA01F03D
:1019F00033FA144BD3F8B4305C6E2CB1DDB1114B1B
:101A0000D3F8B43000225A660E4BD3F8B43000221B
:101A100083F8682001F042FA204638BD114620467E
:101A2000FEF70CFD084B4FF080521A60BFF34F8F4A
:101A3000BFF36F8FD9E7034BD3F8B430621E5A66F9
:101A4000E2E700BF5C04002004ED00E0F8B5069F6B
:101A500040B14FF0500383F31188BFF36F8FBFF392
:101A60004F8FFEE70E4615461C4601F0F5F9244B54
:101A7000D3F8B43093F86830DBB2022B0CD0204A94
:101A8000D2F8B4104B6E23EA06034B66D2F8B4309A
:101A9000012283F86820E7B901F000FA01F0DCF9CF
:101AA00024B1174BD3F8B4305B6E2360144BD3F8DA
:101AB000B43093F86830DBB2022B17D00024104BFF
:101AC000D3F8B430002283F8682001F0E7F920460B
:101AD000F8BD11463846FEF7B1FC0A4B4FF0805274
:101AE0001A60BFF34F8FBFF36F8FD5E7044BD3F866
:101AF000B420536E23EA050353660124DFE700BFD9
:101B00005C04002004ED00E0F8B5069F41B14FF001
:101B1000500383F31188BFF36F8FBFF34F8FFEE73E
:101B2000044615461E4688B101F096F90FB1636E62
:101B30003B6094F86830DBB2022284F86820042EFF
:101B40005BD8DFE806F00F0C505456004FF05003FE
:101B500083F31188BFF36F8FBFF34F8FFEE7626E81
:101B600015436566012B69D16369A268E1689160DC
:101B7000E268A1685160201D5A68824204BFE26891
:101B80005A60002262611A68013A1A60E26A2F4BB9
:101B9000D3F8B850012191402943C3F8B81002EBA3
:101BA000820203EB8202126DA2609168E1604860DC
:101BB0009060E26A03F14C0102EB820001EB8001CC
:101BC000616103EB8001C96C013103EB8003D964CF
:101BD000A36A03B34FF0500383F31188BFF36F8FF1
:101BE000BFF34F8FFEE7626E01326266BAE7656649
:101BF000B8E7022B20D06566B4E7144AD2F8B020CB
:101C0000002AAFD04FF0500383F31188BFF36F8FDA
:101C1000BFF34F8FFEE70D4BD3F8B430E26ADB6AB7
:101C20009A4210D90A4B4FF080521A60BFF34F8F7F
:101C3000BFF36F8F012402E0002400E0012401F0D3
:101C40002DF92046F8BD0124F9E700BF5C0400200F
:101C500004ED00E02DE9F843DDF82090099D60B126
:101C600017469846044689B14FF0500383F3118814
:101C7000BFF36F8FBFF34F8FFEE74FF0500383F337
:101C80001188BFF36F8FBFF34F8FFEE701F000FAAB
:101C9000EFF311864FF0500383F31188BFF36F8F7A
:101CA000BFF34F8FB9F1000F02D0636EC9F8003057
:101CB00094F86830DBB2022284F86820B8F1040F8F
:101CC00018D8DFE808F006030D111300626E174301
:101CD0006766012B1CD0012086F31188BDE8F883CC
:101CE000626E01326266F4E76766F2E7022B72D039
:101CF0006766EEE73A4AD2F8B020002AE9D04FF002
:101D0000500383F31188BFF36F8FBFF34F8FFEE74C
:101D1000A36A43B14FF0500383F31188BFF36F8F71
:101D2000BFF34F8FFEE72E4BD3F8F030002B42D19C
:101D30006369A268E1689160E268A1685160201D52
:101D40005A68824204BFE2685A60002262611A68DF
:101D5000013A1A60E26A224BD3F8B870012191402F
:101D60003943C3F8B81002EB820203EB8202126D12
:101D7000A2609168E16048609060E26A03F14C0102
:101D800002EB820001EB8001616103EB8001C96C11
:101D9000013103EB8003D964114BD3F8B430E26A0C
:101DA000DB6A9A4219D90DB101232B6001200C4B3B
:101DB000C3F8F40090E70A4B9A69E26190682062E8
:101DC00004F118014160916003F11402A2625A69A2
:101DD00001325A61E0E700207EE701207CE700BF86
:101DE0005C040020F8B558B11546044689B14FF09F
:101DF000500383F31188BFF36F8FBFF34F8FFEE75C
:101E00004FF0500383F31188BFF36F8FBFF34F8FF1
:101E1000FEE701F03DF9EFF311804FF0500383F33B
:101E20001188BFF36F8FBFF34F8F94F86830DBB228
:101E3000022284F86820626E01326266012B02D0B1
:101E400080F31188F8BDA36A43B14FF0500383F3C8
:101E50001188BFF36F8FBFF34F8FFEE72B4BD3F883
:101E6000F030002B42D16369A268E1689160E268BA
:101E7000A1685160261D5A68B24204BFE2685A60E8
:101E8000002262611A68013A1A60E26A1F4BD3F8B5
:101E9000B870012191403943C3F8B81002EB8202B7
:101EA00003EB8202126DA2609168E1604E60966061
:101EB000E26A03F14C0102EB820601EB86016161EB
:101EC00003EB8601C96C013103EB8603D9640F4B28
:101ED000D3F8B430E26ADB6A9A42B1D90DB101237A
:101EE0002B600A4B0122C3F8F420A9E7074B9A693B
:101EF000E2619668266204F118017160916003F155
:101F00001402A2625A6901325A61E0E75C040020BF
:101F100041B14FF0500383F31188BFF36F8FBFF3CC
:101F20004F8FFEE710B5044678B100F095FF94F8A6
:101F30006830DBB2022B03BF002384F86830012431
:101F4000002400F0ABFF204610BD024BD3F8B44094
:101F5000EBE700BF5C04002070B50E461546044652
:101F600060B100F079FF04EB86014C6E4B6E23EA02
:101F700005034B6600F092FF204670BD014BD3F87D
:101F8000B440EEE75C04002010B5044600F064FFA6
:101F9000A46B00F083FFB4FA84F0400910BD70B563
:101FA00004461546866B026C5AB903681BB10020C3
:101FB0000136A66370BD8068FFF70AFC0023A360AA
:101FC000F6E76DB9406801F0DDF96368226C1344EF
:101FD0006360A268934219D3236863602846E7E7E9
:101FE000C06801F0CFF9226C5142E3689B1AE360AC
:101FF0002268934202D2A3680B44E360022D01D011
:102000000020D5E726B1013E0020D1E72846CFE7E2
:102010000020CDE70346026C6AB110B50846D968C6
:102020001144D9609C68A14224BF1968D960D9685D
:1020300001F0A8F910BD704770B5054600F00CFF1F
:1020400095F8454064B2002C0FDD05F1240604E04C
:10205000FFF774FA013C64B23CB16B6A2BB13046B5
:10206000FFF71CF90028F5D0F2E7FF2385F845308B
:1020700000F014FF00F0F0FE95F8444064B2002C2C
:102080000FDD05F1100604E0FFF758FA013C64B2D9
:102090003CB12B692BB13046FFF700F90028F5D091
:1020A000F2E7FF2385F8443000F0F8FE70BD38B544
:1020B00080B10D460446C36B1BB1026CA2FB032327
:1020C0008BB14FF0500383F31188BFF36F8FBFF3D1
:1020D0004F8FFEE74FF0500383F31188BFF36F8FEC
:1020E000BFF34F8FFEE700F0B7FE2268216CE36B71
:1020F00003FB01F3D018A0600020A06362605B1AAC
:102100001344E360FF2384F8443084F84530A5B9D4
:1021100023691BB900F0C2FE012038BD04F1100094
:10212000FFF7BCF80028F5D0084B4FF080521A603A
:10213000BFF34F8FBFF36F8FECE704F1100000F097
:10214000C5FD04F1240000F0C1FDE3E704ED00E06B
:10215000F8B550B10D4616460746A0FB012323B93A
:1021600001FB00F010F1510F08D94FF0500383F339
:102170001188BFF36F8FBFF34F8FFEE7503000F031
:10218000B3FF044658B165B100F150032360E76323
:10219000256401212046FFF78AFF84F84C60204621
:1021A000F8BD0346F2E710B510B10C46884208D2DC
:1021B0004FF0500383F31188BFF36F8FBFF34F8F3E
:1021C000FEE702220021FFF7C3FF034600B184634C
:1021D000184610BD2DE9F04784B0019258B10E4663
:1021E0001D46044681B1022D1AD000274FF0000889
:1021F000DFF84C9155E04FF0500383F31188BFF3A3
:102200006F8FBFF34F8FFEE7036C002BEBD04FF0C7
:10221000500383F31188BFF36F8FBFF34F8FFEE737
:10222000E36B012B08D04FF0500383F31188BFF309
:102230006F8FBFF34F8FFEE70027D7E72A4631465F
:102240002046FFF7ACFE626A72B938B13C4B4FF0E2
:1022500080521A60BFF34F8FBFF36F8F00F01EFEE6
:10226000012004B0BDE8F08704F12400FFF716F860
:102270000028F3D0324B4FF080521A60BFF34F8FDB
:10228000BFF36F8FEAE700F009FE0020E9E702A83C
:10229000FFF706F912E02046FFF7CEFEFEF78CFDB1
:1022A000012700F0D9FDA26BE36B9A42C6D3022D41
:1022B000C4D0019B002BE6D0002FE8D000F0EEFD4B
:1022C000FEF774FC00F0C8FD94F844305BB2B3F143
:1022D000FF3F08BF84F8448094F845305BB2B3F107
:1022E000FF3F08BF84F8458000F0D8FD01A902A88F
:1022F000FFF7E0F8E8B900F0AFFDD4F838A0E76BDD
:1023000000F0CCFDBA45C6D1019904F11000FEF7EA
:102310006DFF2046FFF790FEFEF74EFD0028BFD16F
:102320004FF08053C9F80030BFF34F8FBFF36F8F6A
:10233000B6E72046FFF780FEFEF73EFD002090E75F
:1023400004ED00E010B5024600210120FFF700FF78
:10235000044638B1002181600160C1600B460A4625
:10236000FFF738FF204610BD38B538B10446856800
:10237000FFF7BEF985420AD0002038BD4FF0500368
:1023800083F31188BFF36F8FBFF34F8FFEE7E368CE
:10239000013BE3600BB10120EFE71A4619462046E6
:1023A000FFF718FF0120E8E72DE9F84390B18946CF
:1023B00090461F460446B1B1022F20D1E36B012B9A
:1023C0001DD04FF0500383F31188BFF36F8FBFF31D
:1023D0004F8FFEE74FF0500383F31188BFF36F8FE9
:1023E000BFF34F8FFEE7036C002BE5D04FF0500397
:1023F00083F31188BFF36F8FBFF34F8FFEE700F0B9
:1024000047FEEFF311864FF0500383F31188BFF3BB
:102410006F8FBFF34F8FA26BE36B9A4206D3022FED
:1024200004D0002086F31188BDE8F88394F8455065
:102430006DB2A36B3A4649462046FFF7B0FDB5F1B1
:10244000FF3F0FD1636A0BB90120EBE704F12400D1
:10245000FEF724FFD8B1B8F1000F1AD00120C8F858
:102460000000DFE7FEF7BCFB854214D27F2D05D0CC
:102470006B1C5BB284F845300120D3E74FF050036A
:1024800083F31188BFF36F8FBFF34F8FFEE70120F7
:10249000C8E70120C6E70120C4E7F8B560B10F46E0
:1024A0000446036C8BB14FF0500383F31188BFF3E4
:1024B0006F8FBFF34F8FFEE74FF0500383F3118808
:1024C000BFF36F8FBFF34F8FFEE70368DBB100F000
:1024D000DFFDEFF311864FF0500383F31188BFF354
:1024E0006F8FBFF34F8FA36BE26B9A4235D994F88D
:1024F00045506DB20133A363B5F1FF3F18D1636A54
:102500006BB901202AE08368002BE0D04FF0500324
:1025100083F31188BFF36F8FBFF34F8FFEE704F192
:102520002400FEF7BBFEE0B1EFB10120386015E0FA
:10253000FEF756FB854218D27F2D05D06B1C5BB28F
:1025400084F84530012009E04FF0500383F31188EF
:10255000BFF36F8FBFF34F8FFEE7002086F3118824
:10256000F8BD0120FAE70120F8E70120F6E72DE9A0
:10257000F04385B0019238B10D46044669B14FF081
:10258000000900264B4F4EE04FF0500383F31188B3
:10259000BFF36F8FBFF34F8FFEE7036C43B14FF074
:1025A000500383F31188BFF36F8FBFF34F8FFEE7A4
:1025B0004FF00009E5E729462046FFF72BFD08F11B
:1025C000FF33A36323692BB900F068FC012005B039
:1025D000BDE8F08304F11000FEF760FE0028F3D0A0
:1025E000344B4FF080521A60BFF34F8FBFF36F8FA1
:1025F000EAE700F053FC0020E9E702A8FEF750FFED
:102600001EE02046FFF718FDFEF7D6FB09E0204646
:10261000FFF712FDFEF7D0FB2046FFF7B5FC0028C0
:1026200045D14FF0010900F017FCD4F83880B8F11B
:10263000000FC0D1019B002BDBD0B9F1000FDCD023
:1026400000F02CFCFEF7B2FA00F006FC94F84430DF
:102650005BB2B3F1FF3F08BF84F8446094F84530A3
:102660005BB2B3F1FF3F08BF84F8456000F016FC91
:1026700001A902A8FEF71EFF0028C8D12046FFF7D7
:1026800083FC0028BDD0019904F12400FEF7AEFDC3
:102690002046FFF7D1FCFEF78FFB0028C1D14FF099
:1026A00080533B60BFF34F8FBFF36F8FB9E70020BC
:1026B0008DE700BF04ED00E02DE9F04184B0019109
:1026C00058B10446036C8BB14FF0500383F311886B
:1026D000BFF36F8FBFF34F8FFEE74FF0500383F3CD
:1026E0001188BFF36F8FBFF34F8FFEE70025A84619
:1026F0002E46524F4BE0013BA363236843B123694D
:1027000053B900F0CBFB0125284604B0BDE8F081A9
:10271000FFF740F9A060F2E704F11000FEF7BEFDFC
:102720000028EED0454B4FF080521A60BFF34F8F18
:10273000BFF36F8FE5E745B14FF0500383F3118886
:10274000BFF36F8FBFF34F8FFEE700F0A7FBDBE710
:1027500002A8FEF7A5FE25E000F07EFBA068FEF7CC
:10276000CDFF054600F09AFB42E02046FFF764FCEF
:10277000FEF722FB09E02046FFF75EFCFEF71CFB9C
:102780002046FFF701FC002846D14FF0010800F079
:1027900063FBA36B002BAED1019B002BCBD0B8F118
:1027A000000FD5D000F07AFBFEF700FA00F054FBE2
:1027B00094F844305BB2B3F1FF3F08BF84F8446043
:1027C00094F845305BB2B3F1FF3F08BF84F8456031
:1027D00000F064FB01A902A8FEF76CFE0028CAD134
:1027E0002046FFF7D1FB0028BFD02368002BB3D0D1
:1027F000019904F12400FEF7F9FC2046FFF71CFCC8
:10280000FEF7DAFA0028C0D14FF080533B60BFF3E7
:102810004F8FBFF36F8FB8E7002D3FF475AF00F017
:102820001BFB616A19B1236B1968C1F10501A0682E
:10283000FFF732F800F032FB002565E704ED00E019
:1028400088B170B50D4604468668FEF751FF864292
:1028500012D029462046FFF72FFF024680B1E368D9
:102860000133E3600CE04FF0500383F31188BFF3B2
:102870006F8FBFF34F8FFEE7E3680133E360012200
:10288000104670BD2DE9F04184B0019238B10D467B
:10289000044669B14FF0000800264A4F4DE04FF062
:1028A000500383F31188BFF36F8FBFF34F8FFEE7A1
:1028B000036C43B14FF0500383F31188BFF36F8F64
:1028C000BFF34F8FFEE74FF00008E5E7E6682946C3
:1028D0002046FFF79FFBE660636A2BB900F0DEFA43
:1028E000012004B0BDE8F08104F12400FEF7D6FC1D
:1028F0000028F3D0334B4FF080521A60BFF34F8F54
:10290000BFF36F8FEAE700F0C9FA0020E9E702A8F9
:10291000FEF7C6FD1CE02046FFF78EFBFEF74CFAE3
:1029200009E02046FFF788FBFEF746FA2046FFF74E
:102930002BFB002843D14FF0010800F08DFAA36B68
:10294000002BC3D1019B002BDDD0B8F1000FDED0EE
:1029500000F0A4FAFEF72AF900F07EFA94F8443069
:102960005BB2B3F1FF3F08BF84F8446094F8453090
:102970005BB2B3F1FF3F08BF84F8456000F08EFA08
:1029800001A902A8FEF796FD0028CAD12046FFF74C
:10299000FBFA0028BFD0019904F12400FEF726FCC1
:1029A0002046FFF749FBFEF707FA0028C3D14FF096
:1029B00080533B60BFF34F8FBFF36F8FBBE70020A7
:1029C0008FE700BF04ED00E02DE9F843C8B1894668
:1029D00017460546F1B100F05BFBEFF311864FF0AF
:1029E000500383F31188BFF36F8FBFF34F8FD5F878
:1029F0003880B8F1000F19D1002086F31188BDE8A6
:102A0000F8834FF0500383F31188BFF36F8FBFF348
:102A10004F8FFEE7036C002BDDD04FF0500383F3A4
:102A20001188BFF36F8FBFF34F8FFEE795F84440D7
:102A300064B249462846FFF7EDFA08F1FF33AB636D
:102A4000B4F1FF3F0CD12B690BB90120D5E705F19B
:102A50001000FEF723FCC0B1CFB101203860CCE7F5
:102A6000FEF7BEF8844214D27F2C05D0631C5BB203
:102A700085F844300120C0E74FF0500383F31188FC
:102A8000BFF36F8FBFF34F8FFEE70120B5E7012043
:102A9000B3E70120B1E7F8B568B10D46044699B136
:102AA000036CEBB94FF0500383F31188BFF36F8FC2
:102AB000BFF34F8FFEE74FF0500383F31188BFF34E
:102AC0006F8FBFF34F8FFEE7036C002BEAD04FF000
:102AD000500383F31188BFF36F8FBFF34F8FFEE76F
:102AE00000F0D6FAEFF311864FF0500383F311880C
:102AF000BFF36F8FBFF34F8FA36B1BB9002086F31B
:102B00001188F8BDE76829462046FFF783FAE76099
:102B10000120F4E740B110B5044600F09DF9A46B24
:102B200000F0BCF9204610BD4FF0500383F311882C
:102B3000BFF36F8FBFF34F8FFEE750B110B5044660
:102B400000F08AF9A36BE46BE41A00F0A7F92046C1
:102B500010BD4FF0500383F31188BFF36F8FBFF3A5
:102B60004F8FFEE708B1806B70474FF0500383F33F
:102B70001188BFF36F8FBFF34F8FFEE7806C7047F4
:102B80008164704790F84C00704720B1806BB0FAB8
:102B900080F0400970474FF0500383F31188BFF372
:102BA0006F8FBFF34F8FFEE730B1826BC06B9042E7
:102BB00014BF0020012070474FF0500383F31188A9
:102BC000BFF36F8FBFF34F8FFEE738B170B4044689
:102BD00021B300231A46124D281F0FE04FF0500377
:102BE00083F31188BFF36F8FBFF34F8FFEE70D4B59
:102BF00003EBC20310E00132082A0CD055F8326012
:102C0000A642F4D0002BF6D150F83260002EF2D15B
:102C100000EBC203EFE70BB119605C6070BC70475A
:102C2000E8330120E4330120014650B100230B4A70
:102C300052F8330088420DD00133082BF8D1002020
:102C400070474FF0500383F31188BFF36F8FBFF3CA
:102C50004F8FFEE7024A52F833007047E8330120F5
:102C6000E4330120014648B100230D4A52F83300F5
:102C700088420CD00133082BF8D170474FF0500335
:102C800083F31188BFF36F8FBFF34F8FFEE7054AC1
:102C9000002142F8331002EBC3035960704700BFB4
:102CA000E8330120E433012038B110B50446FFF7C2
:102CB000D9FF204600F064FA10BD4FF0500383F3B3
:102CC0001188BFF36F8FBFF34F8FFEE700F108034A
:102CD00043604FF0FF328260C360036100230360F2
:102CE000704700230361704743684B609A688A60AD
:102CF000516099600861036801330360704730B424
:102D00000D68B5F1FF3F11D000F108031C465B6868
:102D10001A68AA42FAD963684B6099608C60616056
:102D2000086103680133036030BC70470469F2E74F
:102D30000369416882688A60416851605A688242CA
:102D400004BF82685A60002202611A68013A1A6060
:102D5000186870470000000000000000000000003C
:102D600082B0002301930D4B1B68B3F1FF3F08D0E5
:102D70004FF0500383F31188BFF36F8FBFF34F8F72
:102D8000FEE74FF0500383F31188BFF36F8FBFF35B
:102D90004F8F019B002BFCD002B070470C0000202D
:102DA00008480068006880F308884FF0000080F34E
:102DB000148862B661B6BFF34F8FBFF36F8F00DF29
:102DC00000BF000008ED00E0DFF80C00016841F4EE
:102DD000700101607047000088ED00E04FF08073E3
:102DE00040F8043C21F0010140F8081C054B40F874
:102DF0000C3C40F8202C6FF0020340F8243C44388F
:102E0000704700BF612D0008094B19680868B0E8D9
:102E1000F04F80F30988BFF36F8F4FF0000080F30D
:102E200011887047AFF30080AFF30080AFF30080EC
:102E300010050020074B1B68B3F57A7F08D04FF0D0
:102E4000500383F31188BFF36F8FBFF34F8FFEE7FB
:102E5000704700BF0C0000204FF0500383F311882F
:102E6000BFF36F8FBFF34F8F0A4A136801331360AC
:102E7000012B00D07047084B1B6813F0FF0FF9D0EF
:102E80004FF0500383F31188BFF36F8FBFF34F8F61
:102E9000FEE700BF0C00002004ED00E0094B1B68BA
:102EA00043B94FF0500383F31188BFF36F8FBFF323
:102EB0004F8FFEE7013B034A13600BB983F3118880
:102EC000704700BF0C000020EFF30980BFF36F8F45
:102ED000174B1A681EF0100F08BF20ED108A20E96A
:102EE000F04F10602DE909004FF0500080F3118879
:102EF000BFF34F8FBFF36F8FFEF7A6F84FF00000C0
:102F000080F3118809BC19680868B0E8F04F1EF01A
:102F1000100F08BFB0EC108A80F30988BFF36F8FE1
:102F2000704700BFAFF30080AFF30080AFF30080C5
:102F30001005002008B54FF0500383F31188BFF34C
:102F40006F8FBFF34F8FFDF767FE18B1034B4FF044
:102F500080521A60002383F3118808BD04ED00E05D
:102F6000054B00221A6005490A60054A40F69F7128
:102F7000116007221A60704710E000E018E000E0DE
:102F800014E000E03A4B1A683A4B9A4238D0384B7A
:102F90001A68394B9A423CD010B582B0374B1A7838
:102FA000D2B20192FF221A701B78DBB28DF8033087
:102FB0009DF80330324A03F0500313700723536027
:102FC0009DF8033013F0800F11D006229DF80330D6
:102FD0005B00DBB28DF803309DF803101346013A15
:102FE00011F0800FF2D1264A5360032B1AD04FF014
:102FF000500383F31188BFF36F8FBFF34F8FFEE74A
:103000004FF0500383F31188BFF36F8FBFF34F8FDF
:10301000FEE74FF0500383F31188BFF36F8FBFF3C8
:103020004F8FFEE7164B4FF440725A60019BDBB2A4
:10303000124A1370134B1A6842F470021A601A682D
:1030400042F070421A60FFF78BFF00240E4B1C60A9
:10305000FFF7BAFE0D4A136843F040431360FFF7D1
:103060009FFEFDF7F1FFFFF77BFE204602B010BD8B
:1030700000ED00E071C20F4170C20F4100E400E0BA
:103080006005002020ED00E00C00002034EF00E09F
:10309000EFF305830F2B0FD9104A9B5CDBB2104A6C
:1030A00012789A4208D94FF0500383F31188BFF386
:1030B0006F8FBFF34F8FFEE70A4B1B6803F4E0638B
:1030C000074A5268934208D94FF0500383F311889E
:1030D000BFF36F8FBFF34F8FFEE77047F0E300E061
:1030E000600500200CED00E038B5044610F0070F35
:1030F00010D020F007050835854232D8FDF756FD7F
:103100001C4B1B68C3B1FDF757FE00F0E1F800252A
:10311000284638BDFDF74AFD164B1B686BB1002CE5
:10312000F1D0144B5B681C44134A94420DD8A3425F
:103130000ED3FDF741FEE8E700240E4A0F4B23F0C3
:1031400007031360EBE72C46F7E7FDF735FEDCE7F6
:10315000084A15681D445460FDF72EFE002DD7D196
:10316000D3E7FDF723FD034B1B68002BEBD02C4668
:10317000D7E700BF68050020F72B01007705002086
:1031800040B14FF0500383F31188BFF36F8FBFF34B
:103190004F8FFEE77047024B00225A60704700BF16
:1031A00068050020034B5868C0F5953000F5FC70A9
:1031B000704700BF6805002008B54FF090444FF4F9
:1031C0007A75A36943F02003A3612846FDF7F6FE54
:1031D000A36943F40013A3612846FDF7EFFEF0E76F
:1031E00010B582B0154AD36823F4E0631B041B0CAE
:1031F00043F0BF6343F40033D360114AD36C43F010
:103200000103D3644FF090431A6822F400621A60FD
:103210001A6842F480621A6000F018F800240194E1
:103220000423009323464FF4806206490648FDF7C5
:1032300059F9FDF76BFC204602B010BD00ED00E02F
:103240000010024048370008B9310008144A1368DA
:1032500043F480731360136813F4806FFBD0104B3A
:103260009A6D42F080529A650E490A6842F40072E3
:103270000A6001F5D8310A6842F4E06242F00402C3
:103280000A60D968084A0A43DA601A6842F0807214
:103290001A601A46136813F0007FFBD0704700BF16
:1032A0000010024000700040020A00014FF050037D
:1032B00083F31188BFF36F8FBFF34F8FFEE7034B8C
:1032C00003606C330B608223136070477031012000
:1032D0007047FEE7FEE7FEE7FEE700BF002301467A
:1032E0001A46184600F038B908B50021044600F027
:1032F00067F9044B1868C36B03B19847204600F088
:10330000ADF900BF3C37000838B50A4C0A4D641BC4
:10331000A4100AD004F18043013B05EB8305013C76
:1033200055F804399847002CF9D1BDE8384000F031
:10333000DBB900BF643700086037000870B50D4E78
:103340000D4D761BB61006D00024013455F8043B11
:103350009847A642F9D1094E094D761B00F0BEF9F7
:10336000B61006D00024013455F8043B9847A64215
:10337000F9D170BD54370008543700086037000891
:1033800054370008844641EA000313F003036DD16B
:10339000403A41D351F8043B40F8043B51F8043B18
:1033A00040F8043B51F8043B40F8043B51F8043B1F
:1033B00040F8043B51F8043B40F8043B51F8043B0F
:1033C00040F8043B51F8043B40F8043B51F8043BFF
:1033D00040F8043B51F8043B40F8043B51F8043BEF
:1033E00040F8043B51F8043B40F8043B51F8043BDF
:1033F00040F8043B51F8043B40F8043B51F8043BCF
:1034000040F8043B51F8043B40F8043B51F8043BBE
:1034100040F8043B403ABDD2303211D351F8043B5E
:1034200040F8043B51F8043B40F8043B51F8043B9E
:1034300040F8043B51F8043B40F8043B103AEDD20D
:103440000C3205D351F8043B40F8043B043AF9D25E
:10345000043208D0D2071CBF11F8013B00F8013B31
:1034600001D30B8803806046704700BF082A13D33E
:103470008B078DD010F003038AD0C3F10403D21A56
:10348000DB071CBF11F8013B00F8013B80D331F88A
:10349000023B20F8023B7BE7043AD9D3013A11F80A
:1034A000013B00F8013BF9D20B7803704B78437075
:1034B0008B78837060467047F0B4860746D0541E00
:1034C000002A3CD0CAB2034602E014F1FF3436D3DE
:1034D00003F8012B9D07F8D1032C29D9CDB245EA79
:1034E00005250F2C45EA054533D9A4F11006360908
:1034F00003F1200707EB061703F1100242E9045518
:1035000042E902551032BA42F8D1721C14F00C0F85
:1035100003EB021204F00F0613D0331F23F0030352
:103520000433134442F8045B9342FBD106F00304D6
:103530002CB1C9B21C4403F8011B9C42FBD1F0BC66
:10354000704734461346002CF3D1F8E7144603467F
:10355000C2E71A462646E0E7F0B4184C2568D5F8CD
:10356000484114B365681F2D24DC38B9AB1C013504
:10357000656044F823100020F0BC704704EB85061A
:103580000127C6F8882007FA05F2D4F888710228C6
:1035900047EA0207C4F88871C6F80831E6D1D4F8C2
:1035A0008C311A43C4F88C21E0E705F5A674C5F800
:1035B0004841D7E74FF0FF30DEE700BF3C37000857
:1035C0002DE9F04F244B83B0D3F800B001908A4628
:1035D0004FF00008DBF8486196B17468651E0FD49F
:1035E000013406EB84040127BAF1000F0BD0D4F8A4
:1035F0000031534507D0013D6B1CA4F10404F3D105
:1036000003B0BDE8F08F73682268013BAB420CBF8A
:103610007560C4F80080002AEDD0D6F88811D6F87D
:10362000049007FA05FC1CEA010F08D19047726864
:103630004A45CFD1DBF84831B342DCD0CAE7D6F8EF
:103640008C31D4F880101CEA030F02D10198904706
:10365000EDE708469047EAE73C370008FEE700BF81
:10366000F1EE103A43F08073E1EE103A704700BF7C
:10367000DFF834D0FCF708FE0C480D490D4A002352
:1036800002E0D458C4500433C4188C42F9D30A4A17
:103690000A4C002301E013600432A242FBD3FFF77F
:1036A0004DFEFFF79DFDFEE7008001200000002099
:1036B0004004002064370008400400202434012026
:1036C000FEE70000024B13B10248FFF707BE704748
:1036D000000000000933000800000000F8B500BF3A
:1036E000F8BC08BC9E467047F8B500BFF8BC08BCE3
:0436F0009E4670473B
:1036F400A0860100400D0300801A060000350C006E
:1037040040420F0080841E0000093D0000127A0030
:103714000024F40000366E010048E801006CDC026D
:10372400000000000000000001020304060708096D
:1037340000000000010203041800002049444C4525
:08374400000000006C65640048
:08374C00CCCAFF7F0100000060
:0C375400C536000861360008F9010008C5
:04376000D10100088B
:103764000000000000093D0004000000AAAAAAAA63
:1037740018000020000000000000000004030020E6
:103784006C030020D40300200000000000000000AF
:103794000000000000000000000000000000000025
:1037A4000000000000000000000000000000000015
:1037B4000000000000000000000000000000000005
:1037C40000000000000000000000000000000000F5
:1037D40000000000000000000000000000000000E5
:1037E40000000000000000000000000000000000D5
:1037F40000000000000000000000000000000000C5
:1038040000000000000000000000000000000000B4
:1038140000000000000000000000000000000000A4
:1038240001000000000000000E33CDAB34126DE641
:10383400ECDE05000B0000000000000000000000AA
:103844000000000000000000000000000000000074
:103854000000000000000000000000000000000064
:103864000000000000000000000000000000000054
:103874000000000000000000000000000000000044
:040000050800367148
:00000001FF
